{
  "abi": [
    {
      "inputs": [
        {
          "internalType": "address",
          "name": "collection",
          "type": "address"
        },
        {
          "internalType": "uint256",
          "name": "id",
          "type": "uint256"
        },
        {
          "internalType": "uint256",
          "name": "maxExpiry",
          "type": "uint256"
        },
        {
          "internalType": "uint256",
          "name": "fee",
          "type": "uint256"
        }
      ],
      "name": "deposit",
      "outputs": [],
      "stateMutability": "nonpayable",
      "type": "function"
    },
    {
      "inputs": [
        {
          "internalType": "address",
          "name": "collection",
          "type": "address"
        },
        {
          "internalType": "uint256",
          "name": "id",
          "type": "uint256"
        }
      ],
      "name": "endRental",
      "outputs": [],
      "stateMutability": "payable",
      "type": "function"
    },
    {
      "inputs": [
        {
          "internalType": "address",
          "name": "collection",
          "type": "address"
        },
        {
          "internalType": "uint256",
          "name": "id",
          "type": "uint256"
        }
      ],
      "name": "expiryOf",
      "outputs": [
        {
          "internalType": "uint256",
          "name": "",
          "type": "uint256"
        }
      ],
      "stateMutability": "view",
      "type": "function"
    },
    {
      "inputs": [
        {
          "internalType": "address",
          "name": "collection",
          "type": "address"
        },
        {
          "internalType": "uint256",
          "name": "id",
          "type": "uint256"
        }
      ],
      "name": "feeOf",
      "outputs": [
        {
          "internalType": "uint256",
          "name": "",
          "type": "uint256"
        }
      ],
      "stateMutability": "view",
      "type": "function"
    },
    {
      "inputs": [
        {
          "internalType": "address",
          "name": "collection",
          "type": "address"
        }
      ],
      "name": "getWrapped",
      "outputs": [
        {
          "internalType": "address",
          "name": "",
          "type": "address"
        }
      ],
      "stateMutability": "view",
      "type": "function"
    },
    {
      "inputs": [
        {
          "internalType": "address",
          "name": "collection",
          "type": "address"
        },
        {
          "internalType": "uint256",
          "name": "id",
          "type": "uint256"
        }
      ],
      "name": "ownerOf",
      "outputs": [
        {
          "internalType": "address",
          "name": "",
          "type": "address"
        }
      ],
      "stateMutability": "view",
      "type": "function"
    },
    {
      "inputs": [
        {
          "internalType": "address",
          "name": "collection",
          "type": "address"
        },
        {
          "internalType": "uint256",
          "name": "id",
          "type": "uint256"
        }
      ],
      "name": "renteeOf",
      "outputs": [
        {
          "internalType": "address",
          "name": "",
          "type": "address"
        }
      ],
      "stateMutability": "view",
      "type": "function"
    },
    {
      "inputs": [
        {
          "internalType": "address",
          "name": "collection",
          "type": "address"
        },
        {
          "internalType": "uint256",
          "name": "id",
          "type": "uint256"
        }
      ],
      "name": "startRental",
      "outputs": [],
      "stateMutability": "payable",
      "type": "function"
    },
    {
      "inputs": [
        {
          "internalType": "address",
          "name": "collection",
          "type": "address"
        },
        {
          "internalType": "uint256",
          "name": "id",
          "type": "uint256"
        }
      ],
      "name": "withdrawl",
      "outputs": [],
      "stateMutability": "nonpayable",
      "type": "function"
    }
  ],
  "bytecode": {
    "object": "0x608060405234801561001057600080fd5b5061225e806100206000396000f3fe608060405260043610620000915760003560e01c80636e5ebd1811620000605780636e5ebd1814620001915780636f9c870e14620001db5780637fdad786146200021857806396a91d07146200022f578063ce88b439146200025457600080fd5b80631157decb14620000965780631f29d2dc14620000af5780635afbed921462000113578063605435901462000138575b600080fd5b620000ad620000a736600462000b05565b62000279565b005b348015620000bc57600080fd5b50620000f6620000ce36600462000b05565b6001600160a01b03918216600090815260016020908152604080832093835292905220541690565b6040516001600160a01b0390911681526020015b60405180910390f35b3480156200012057600080fd5b50620000ad6200013236600462000b05565b62000404565b3480156200014557600080fd5b50620001826200015736600462000b05565b6001600160a01b03919091166000908152600160209081526040808320938352929052206003015490565b6040519081526020016200010a565b3480156200019e57600080fd5b5062000182620001b036600462000b05565b6001600160a01b03919091166000908152600160209081526040808320938352929052206002015490565b348015620001e857600080fd5b50620000f6620001fa36600462000b32565b6001600160a01b039081166000908152602081905260409020541690565b620000ad6200022936600462000b05565b620004a6565b3480156200023c57600080fd5b50620000f66200024e36600462000b05565b6200098a565b3480156200026157600080fd5b50620000ad6200027336600462000b50565b620009f0565b6001600160a01b038281166000908152600160209081526040808320858452909152902054163314620002df5760405162461bcd60e51b81526020600482015260096024820152682727aa2fa7aba722a960b91b60448201526064015b60405180910390fd5b6001600160a01b0382811660009081526020819052604090819020549051636f074d1f60e11b815260048101849052911690819063de0e9a3e90602401600060405180830381600087803b1580156200033757600080fd5b505af11580156200034c573d6000803e3d6000fd5b505050506001600160a01b038316600081815260016020818152604080842087855290915280832080546001600160a01b03199081168255928101805490931690925560028201839055600390910191909155516323b872dd60e01b8152306004820152336024820152604481018490528491906323b872dd906064015b600060405180830381600087803b158015620003e557600080fd5b505af1158015620003fa573d6000803e3d6000fd5b5050505050505050565b6001600160a01b03808316600090815260016020908152604080832085845290915290205416338114620004675760405162461bcd60e51b81526020600482015260096024820152682727aa2fa7aba722a960b91b6044820152606401620002d6565b6040516323b872dd60e01b81523060048201526001600160a01b038281166024830152604482018490528491908216906323b872dd90606401620003ca565b6001600160a01b038083166000908152600160208181526040808420868552825292839020835160808101855281548616815292810154909416908201526002830154918101919091526003909101546060820181905283919034146200053c5760405162461bcd60e51b815260206004820152600960248201526857524f4e475f46454560b81b6044820152606401620002d6565b80516001600160a01b0316620005845760405162461bcd60e51b815260206004820152600c60248201526b4e4f545f52454e5441424c4560a01b6044820152606401620002d6565b60208101516001600160a01b031615620005d25760405162461bcd60e51b815260206004820152600e60248201526d1053149150511657d4915395115160921b6044820152606401620002d6565b42816040015111620006115760405162461bcd60e51b81526020600482015260076024820152661156141254915160ca1b6044820152606401620002d6565b805160608201516040516000926001600160a01b031691908381818185875af1925050503d806000811462000663576040519150601f19603f3d011682016040523d82523d6000602084013e62000668565b606091505b50509050806200067757600080fd5b6001600160a01b03858116600090815260208190526040902054166200089d57600085846001600160a01b03166306fdde036040518163ffffffff1660e01b8152600401600060405180830381865afa158015620006d9573d6000803e3d6000fd5b505050506040513d6000823e601f3d908101601f1916820160405262000703919081019062000bd5565b856001600160a01b03166395d89b416040518163ffffffff1660e01b8152600401600060405180830381865afa15801562000742573d6000803e3d6000fd5b505050506040513d6000823e601f3d908101601f191682016040526200076c919081019062000bd5565b6040516200077a9062000ada565b620007889392919062000cbc565b604051809103906000f080158015620007a5573d6000803e3d6000fd5b506001600160a01b038781166000908152602081905260409081902080546001600160a01b031916848416908117909155905163095ea7b360e01b815260048101919091526024810188905291925085169063095ea7b390604401600060405180830381600087803b1580156200081b57600080fd5b505af115801562000830573d6000803e3d6000fd5b5050604051635f9bb63d60e11b8152336004820152602481018890526001600160a01b038416925063bf376c7a9150604401600060405180830381600087803b1580156200087d57600080fd5b505af115801562000892573d6000803e3d6000fd5b505050505062000983565b6001600160a01b0385811660009081526020818152604091829020543391860191909152905163095ea7b360e01b815290821660048201819052602482018790529185169063095ea7b390604401600060405180830381600087803b1580156200090657600080fd5b505af11580156200091b573d6000803e3d6000fd5b5050604051635f9bb63d60e11b8152336004820152602481018890526001600160a01b038416925063bf376c7a9150604401600060405180830381600087803b1580156200096857600080fd5b505af11580156200097d573d6000803e3d6000fd5b50505050505b5050505050565b6001600160a01b03821660009081526001602090815260408083208484529091528120600201544210620009c0576000620009e9565b6001600160a01b0380841660009081526001602081815260408084208785529091529091200154165b9392505050565b6040516323b872dd60e01b81523360048201523060248201526044810184905284906001600160a01b038216906323b872dd90606401600060405180830381600087803b15801562000a4157600080fd5b505af115801562000a56573d6000803e3d6000fd5b50506040805160808101825233815260006020808301828152838501998a52606084019889526001600160a01b039b8c16835260018083528584209b84529a90915292902090518154908a166001600160a01b0319918216178255915197810180549890991697909116969096179096555050905160028301555160039091015550565b6115288062000d0183390190565b80356001600160a01b038116811462000b0057600080fd5b919050565b6000806040838503121562000b1957600080fd5b62000b248362000ae8565b946020939093013593505050565b60006020828403121562000b4557600080fd5b620009e98262000ae8565b6000806000806080858703121562000b6757600080fd5b62000b728562000ae8565b966020860135965060408601359560600135945092505050565b634e487b7160e01b600052604160045260246000fd5b60005b8381101562000bbf57818101518382015260200162000ba5565b8381111562000bcf576000848401525b50505050565b60006020828403121562000be857600080fd5b815167ffffffffffffffff8082111562000c0157600080fd5b818401915084601f83011262000c1657600080fd5b81518181111562000c2b5762000c2b62000b8c565b604051601f8201601f19908116603f0116810190838211818310171562000c565762000c5662000b8c565b8160405282815287602084870101111562000c7057600080fd5b62000c8383602083016020880162000ba2565b979650505050505050565b6000815180845262000ca881602086016020860162000ba2565b601f01601f19169290920160200192915050565b6001600160a01b038416815260606020820181905260009062000ce29083018562000c8e565b828103604084015262000cf6818562000c8e565b969550505050505056fe60a06040523480156200001157600080fd5b50604051620015283803806200152883398101604081905262000034916200019b565b8160405160200162000047919062000225565b6040516020818303038152906040528160405160200162000069919062000256565b60408051601f19818403018152919052600062000087838262000310565b50600162000096828262000310565b5050506001600160a01b039092166080525050600680546001600160a01b03191633179055620003dc565b634e487b7160e01b600052604160045260246000fd5b60005b83811015620000f4578181015183820152602001620000da565b8381111562000104576000848401525b50505050565b600082601f8301126200011c57600080fd5b81516001600160401b0380821115620001395762000139620000c1565b604051601f8301601f19908116603f01168101908282118183101715620001645762000164620000c1565b816040528381528660208588010111156200017e57600080fd5b62000191846020830160208901620000d7565b9695505050505050565b600080600060608486031215620001b157600080fd5b83516001600160a01b0381168114620001c957600080fd5b60208501519093506001600160401b0380821115620001e757600080fd5b620001f5878388016200010a565b935060408601519150808211156200020c57600080fd5b506200021b868287016200010a565b9150509250925092565b661ddc985c1c195960ca1b81526000825162000249816007850160208701620000d7565b9190910160070192915050565b607760f81b81526000825162000274816001850160208701620000d7565b9190910160010192915050565b600181811c908216806200029657607f821691505b602082108103620002b757634e487b7160e01b600052602260045260246000fd5b50919050565b601f8211156200030b57600081815260208120601f850160051c81016020861015620002e65750805b601f850160051c820191505b818110156200030757828155600101620002f2565b5050505b505050565b81516001600160401b038111156200032c576200032c620000c1565b62000344816200033d845462000281565b84620002bd565b602080601f8311600181146200037c5760008415620003635750858301515b600019600386901b1c1916600185901b17855562000307565b600085815260208120601f198616915b82811015620003ad578886015182559484019460019091019084016200038c565b5085821015620003cc5787850151600019600388901b60f8161c191681555b5050505050600190811b01905550565b60805161111b6200040d600039600081816101f701528181610971015281816109fc0152610ae4015261111b6000f3fe608060405234801561001057600080fd5b50600436106101005760003560e01c80637de1e53611610097578063bf376c7a11610066578063bf376c7a14610247578063c87b56dd1461025a578063de0e9a3e1461026d578063e985e9c51461028057600080fd5b80637de1e536146101f257806395d89b4114610219578063a22cb46514610221578063b88d4fde1461023457600080fd5b806323b872dd116100d357806323b872dd1461019857806342842e0e146101ab5780636352211e146101be57806370a08231146101d157600080fd5b806301ffc9a71461010557806306fdde031461012d578063081812fc14610142578063095ea7b314610183575b600080fd5b610118610113366004610d35565b6102ae565b60405190151581526020015b60405180910390f35b610135610300565b6040516101249190610d89565b61016b610150366004610dbc565b6004602052600090815260409020546001600160a01b031681565b6040516001600160a01b039091168152602001610124565b610196610191366004610dec565b61038e565b005b6101966101a6366004610e16565b610475565b6101966101b9366004610e16565b61063c565b61016b6101cc366004610dbc565b610734565b6101e46101df366004610e52565b61078b565b604051908152602001610124565b61016b7f000000000000000000000000000000000000000000000000000000000000000081565b6101356107ee565b61019661022f366004610e6d565b6107fb565b610196610242366004610ea9565b610867565b610196610255366004610dec565b61094f565b610135610268366004610dbc565b6109e3565b61019661027b366004610dbc565b610a73565b61011861028e366004610f44565b600560209081526000928352604080842090915290825290205460ff1681565b60006301ffc9a760e01b6001600160e01b0319831614806102df57506380ac58cd60e01b6001600160e01b03198316145b806102fa5750635b5e139f60e01b6001600160e01b03198316145b92915050565b6000805461030d90610f77565b80601f016020809104026020016040519081016040528092919081815260200182805461033990610f77565b80156103865780601f1061035b57610100808354040283529160200191610386565b820191906000526020600020905b81548152906001019060200180831161036957829003601f168201915b505050505081565b6000818152600260205260409020546001600160a01b0316338114806103d757506001600160a01b038116600090815260056020908152604080832033845290915290205460ff165b6104195760405162461bcd60e51b815260206004820152600e60248201526d1393d517d055551213d49256915160921b60448201526064015b60405180910390fd5b60008281526004602052604080822080546001600160a01b0319166001600160a01b0387811691821790925591518593918516917f8c5be1e5ebec7d5bd14f71427d1e84f3dd0314c0f7b2291e5b200ac8c7c3b92591a4505050565b6000818152600260205260409020546001600160a01b038481169116146104cb5760405162461bcd60e51b815260206004820152600a60248201526957524f4e475f46524f4d60b01b6044820152606401610410565b6001600160a01b0382166105155760405162461bcd60e51b81526020600482015260116024820152701253959053125117d49150d25412515395607a1b6044820152606401610410565b336001600160a01b038416148061054f57506001600160a01b038316600090815260056020908152604080832033845290915290205460ff165b8061057057506000818152600460205260409020546001600160a01b031633145b6105ad5760405162461bcd60e51b815260206004820152600e60248201526d1393d517d055551213d49256915160921b6044820152606401610410565b6001600160a01b0380841660008181526003602090815260408083208054600019019055938616808352848320805460010190558583526002825284832080546001600160a01b03199081168317909155600490925284832080549092169091559251849392917fddf252ad1be2c89b69c2b068fc378daa952ba7f163c4a11628f55a4df523b3ef91a4505050565b610647838383610475565b6001600160a01b0382163b15806106f05750604051630a85bd0160e11b8082523360048301526001600160a01b03858116602484015260448301849052608060648401526000608484015290919084169063150b7a029060a4016020604051808303816000875af11580156106c0573d6000803e3d6000fd5b505050506040513d601f19601f820116820180604052508101906106e49190610fb1565b6001600160e01b031916145b61072f5760405162461bcd60e51b815260206004820152601060248201526f155394d0519157d49150d2541251539560821b6044820152606401610410565b505050565b6000818152600260205260409020546001600160a01b0316806107865760405162461bcd60e51b815260206004820152600a6024820152691393d517d3525395115160b21b6044820152606401610410565b919050565b60006001600160a01b0382166107d25760405162461bcd60e51b815260206004820152600c60248201526b5a45524f5f4144445245535360a01b6044820152606401610410565b506001600160a01b031660009081526003602052604090205490565b6001805461030d90610f77565b3360008181526005602090815260408083206001600160a01b03871680855290835292819020805460ff191686151590811790915590519081529192917f17307eab39ab6107e8899845ad3d59bd9653f200f220920489ca2b5937696c31910160405180910390a35050565b610872858585610475565b6001600160a01b0384163b15806109095750604051630a85bd0160e11b808252906001600160a01b0386169063150b7a02906108ba9033908a90899089908990600401610fce565b6020604051808303816000875af11580156108d9573d6000803e3d6000fd5b505050506040513d601f19601f820116820180604052508101906108fd9190610fb1565b6001600160e01b031916145b6109485760405162461bcd60e51b815260206004820152601060248201526f155394d0519157d49150d2541251539560821b6044820152606401610410565b5050505050565b6040516323b872dd60e01b8152336004820152306024820152604481018290527f00000000000000000000000000000000000000000000000000000000000000006001600160a01b0316906323b872dd90606401600060405180830381600087803b1580156109bd57600080fd5b505af11580156109d1573d6000803e3d6000fd5b505050506109df8282610b44565b5050565b60405163c87b56dd60e01b8152600481018290526060907f00000000000000000000000000000000000000000000000000000000000000006001600160a01b03169063c87b56dd90602401600060405180830381865afa158015610a4b573d6000803e3d6000fd5b505050506040513d6000823e601f3d908101601f191682016040526102fa9190810190611038565b6006546001600160a01b03163314610ab95760405162461bcd60e51b81526020600482015260096024820152682727aa2fa7aba722a960b91b6044820152606401610410565b610ac281610c4f565b6040516323b872dd60e01b8152306004820152336024820152604481018290527f00000000000000000000000000000000000000000000000000000000000000006001600160a01b0316906323b872dd90606401600060405180830381600087803b158015610b3057600080fd5b505af1158015610948573d6000803e3d6000fd5b6001600160a01b038216610b8e5760405162461bcd60e51b81526020600482015260116024820152701253959053125117d49150d25412515395607a1b6044820152606401610410565b6000818152600260205260409020546001600160a01b031615610be45760405162461bcd60e51b815260206004820152600e60248201526d1053149150511657d3525395115160921b6044820152606401610410565b6001600160a01b038216600081815260036020908152604080832080546001019055848352600290915280822080546001600160a01b0319168417905551839291907fddf252ad1be2c89b69c2b068fc378daa952ba7f163c4a11628f55a4df523b3ef908290a45050565b6000818152600260205260409020546001600160a01b031680610ca15760405162461bcd60e51b815260206004820152600a6024820152691393d517d3525395115160b21b6044820152606401610410565b6001600160a01b038116600081815260036020908152604080832080546000190190558583526002825280832080546001600160a01b031990811690915560049092528083208054909216909155518492907fddf252ad1be2c89b69c2b068fc378daa952ba7f163c4a11628f55a4df523b3ef908390a45050565b6001600160e01b031981168114610d3257600080fd5b50565b600060208284031215610d4757600080fd5b8135610d5281610d1c565b9392505050565b60005b83811015610d74578181015183820152602001610d5c565b83811115610d83576000848401525b50505050565b6020815260008251806020840152610da8816040850160208701610d59565b601f01601f19169190910160400192915050565b600060208284031215610dce57600080fd5b5035919050565b80356001600160a01b038116811461078657600080fd5b60008060408385031215610dff57600080fd5b610e0883610dd5565b946020939093013593505050565b600080600060608486031215610e2b57600080fd5b610e3484610dd5565b9250610e4260208501610dd5565b9150604084013590509250925092565b600060208284031215610e6457600080fd5b610d5282610dd5565b60008060408385031215610e8057600080fd5b610e8983610dd5565b915060208301358015158114610e9e57600080fd5b809150509250929050565b600080600080600060808688031215610ec157600080fd5b610eca86610dd5565b9450610ed860208701610dd5565b935060408601359250606086013567ffffffffffffffff80821115610efc57600080fd5b818801915088601f830112610f1057600080fd5b813581811115610f1f57600080fd5b896020828501011115610f3157600080fd5b9699959850939650602001949392505050565b60008060408385031215610f5757600080fd5b610f6083610dd5565b9150610f6e60208401610dd5565b90509250929050565b600181811c90821680610f8b57607f821691505b602082108103610fab57634e487b7160e01b600052602260045260246000fd5b50919050565b600060208284031215610fc357600080fd5b8151610d5281610d1c565b6001600160a01b038681168252851660208201526040810184905260806060820181905281018290526000828460a0840137600060a0848401015260a0601f19601f85011683010190509695505050505050565b634e487b7160e01b600052604160045260246000fd5b60006020828403121561104a57600080fd5b815167ffffffffffffffff8082111561106257600080fd5b818401915084601f83011261107657600080fd5b81518181111561108857611088611022565b604051601f8201601f19908116603f011681019083821181831017156110b0576110b0611022565b816040528281528760208487010111156110c957600080fd5b6110da836020830160208801610d59565b97965050505050505056fea2646970667358221220a7f10dfc8e19326d9a41801a3f0e7236354f7667c4659b2b261010be47a6c21264736f6c634300080f0033a2646970667358221220f375bde865bccce8c93b0b69abe6476c03f0548ce658590880abeeca53fc374864736f6c634300080f0033",
    "linkReferences": {}
  },
  "methodIdentifiers": {
    "deposit(address,uint256,uint256,uint256)": "ce88b439",
    "endRental(address,uint256)": "1157decb",
    "expiryOf(address,uint256)": "6e5ebd18",
    "feeOf(address,uint256)": "60543590",
    "getWrapped(address)": "6f9c870e",
    "ownerOf(address,uint256)": "1f29d2dc",
    "renteeOf(address,uint256)": "96a91d07",
    "startRental(address,uint256)": "7fdad786",
    "withdrawl(address,uint256)": "5afbed92"
  },
  "id": 16
}