{
  "abi": [
    {
      "inputs": [
        {
          "internalType": "address",
          "name": "collection",
          "type": "address"
        },
        {
          "internalType": "uint256",
          "name": "id",
          "type": "uint256"
        },
        {
          "internalType": "uint256",
          "name": "maxExpiry",
          "type": "uint256"
        },
        {
          "internalType": "uint256",
          "name": "fee",
          "type": "uint256"
        }
      ],
      "name": "deposit",
      "outputs": [],
      "stateMutability": "nonpayable",
      "type": "function"
    },
    {
      "inputs": [
        {
          "internalType": "address",
          "name": "collection",
          "type": "address"
        },
        {
          "internalType": "uint256",
          "name": "id",
          "type": "uint256"
        }
      ],
      "name": "endRental",
      "outputs": [],
      "stateMutability": "payable",
      "type": "function"
    },
    {
      "inputs": [
        {
          "internalType": "address",
          "name": "collection",
          "type": "address"
        },
        {
          "internalType": "uint256",
          "name": "id",
          "type": "uint256"
        }
      ],
      "name": "expiryOf",
      "outputs": [
        {
          "internalType": "uint256",
          "name": "",
          "type": "uint256"
        }
      ],
      "stateMutability": "view",
      "type": "function"
    },
    {
      "inputs": [
        {
          "internalType": "address",
          "name": "collection",
          "type": "address"
        },
        {
          "internalType": "uint256",
          "name": "id",
          "type": "uint256"
        }
      ],
      "name": "feeOf",
      "outputs": [
        {
          "internalType": "uint256",
          "name": "",
          "type": "uint256"
        }
      ],
      "stateMutability": "view",
      "type": "function"
    },
    {
      "inputs": [
        {
          "internalType": "address",
          "name": "collection",
          "type": "address"
        }
      ],
      "name": "getWrapped",
      "outputs": [
        {
          "internalType": "address",
          "name": "",
          "type": "address"
        }
      ],
      "stateMutability": "view",
      "type": "function"
    },
    {
      "inputs": [
        {
          "internalType": "address",
          "name": "collection",
          "type": "address"
        },
        {
          "internalType": "uint256",
          "name": "id",
          "type": "uint256"
        }
      ],
      "name": "ownerOf",
      "outputs": [
        {
          "internalType": "address",
          "name": "",
          "type": "address"
        }
      ],
      "stateMutability": "view",
      "type": "function"
    },
    {
      "inputs": [
        {
          "internalType": "address",
          "name": "collection",
          "type": "address"
        },
        {
          "internalType": "uint256",
          "name": "id",
          "type": "uint256"
        }
      ],
      "name": "renteeOf",
      "outputs": [
        {
          "internalType": "address",
          "name": "",
          "type": "address"
        }
      ],
      "stateMutability": "view",
      "type": "function"
    },
    {
      "inputs": [
        {
          "internalType": "address",
          "name": "collection",
          "type": "address"
        },
        {
          "internalType": "uint256",
          "name": "id",
          "type": "uint256"
        }
      ],
      "name": "startRental",
      "outputs": [],
      "stateMutability": "payable",
      "type": "function"
    },
    {
      "inputs": [
        {
          "internalType": "address",
          "name": "collection",
          "type": "address"
        },
        {
          "internalType": "uint256",
          "name": "id",
          "type": "uint256"
        }
      ],
      "name": "withdrawl",
      "outputs": [],
      "stateMutability": "nonpayable",
      "type": "function"
    }
  ],
  "bytecode": {
    "object": "0x608060405234801561001057600080fd5b506121ed806100206000396000f3fe608060405260043610620000915760003560e01c80636e5ebd1811620000605780636e5ebd1814620001915780636f9c870e14620001db5780637fdad786146200021857806396a91d07146200022f578063ce88b439146200025457600080fd5b80631157decb14620000965780631f29d2dc14620000af5780635afbed921462000113578063605435901462000138575b600080fd5b620000ad620000a736600462000a38565b62000279565b005b348015620000bc57600080fd5b50620000f6620000ce36600462000a38565b6001600160a01b03918216600090815260016020908152604080832093835292905220541690565b6040516001600160a01b0390911681526020015b60405180910390f35b3480156200012057600080fd5b50620000ad6200013236600462000a38565b62000404565b3480156200014557600080fd5b50620001826200015736600462000a38565b6001600160a01b03919091166000908152600160209081526040808320938352929052206003015490565b6040519081526020016200010a565b3480156200019e57600080fd5b5062000182620001b036600462000a38565b6001600160a01b03919091166000908152600160209081526040808320938352929052206002015490565b348015620001e857600080fd5b50620000f6620001fa36600462000a65565b6001600160a01b039081166000908152602081905260409020541690565b620000ad6200022936600462000a38565b620004a6565b3480156200023c57600080fd5b50620000f66200024e36600462000a38565b620008bd565b3480156200026157600080fd5b50620000ad6200027336600462000a83565b62000923565b6001600160a01b038281166000908152600160209081526040808320858452909152902054163314620002df5760405162461bcd60e51b81526020600482015260096024820152682727aa2fa7aba722a960b91b60448201526064015b60405180910390fd5b6001600160a01b0382811660009081526020819052604090819020549051636f074d1f60e11b815260048101849052911690819063de0e9a3e90602401600060405180830381600087803b1580156200033757600080fd5b505af11580156200034c573d6000803e3d6000fd5b505050506001600160a01b038316600081815260016020818152604080842087855290915280832080546001600160a01b03199081168255928101805490931690925560028201839055600390910191909155516323b872dd60e01b8152306004820152336024820152604481018490528491906323b872dd906064015b600060405180830381600087803b158015620003e557600080fd5b505af1158015620003fa573d6000803e3d6000fd5b5050505050505050565b6001600160a01b03808316600090815260016020908152604080832085845290915290205416338114620004675760405162461bcd60e51b81526020600482015260096024820152682727aa2fa7aba722a960b91b6044820152606401620002d6565b6040516323b872dd60e01b81523060048201526001600160a01b038281166024830152604482018490528491908216906323b872dd90606401620003ca565b6001600160a01b03808316600090815260016020818152604080842086855282529283902083516080810185528154861681529281015490941690820152600283015491810191909152600390910154606082018190523414620005395760405162461bcd60e51b815260206004820152600960248201526857524f4e475f46454560b81b6044820152606401620002d6565b80516001600160a01b0316620005815760405162461bcd60e51b815260206004820152600c60248201526b4e4f545f52454e5441424c4560a01b6044820152606401620002d6565b60208101516001600160a01b031615620005cf5760405162461bcd60e51b815260206004820152600e60248201526d1053149150511657d4915395115160921b6044820152606401620002d6565b428160400151116200060e5760405162461bcd60e51b81526020600482015260076024820152661156141254915160ca1b6044820152606401620002d6565b805160608201516040516000926001600160a01b031691908381818185875af1925050503d806000811462000660576040519150601f19603f3d011682016040523d82523d6000602084013e62000665565b606091505b50509050806200067457600080fd5b6001600160a01b038481166000908152602081905260409020541662000838576000849050600085826001600160a01b03166306fdde036040518163ffffffff1660e01b8152600401600060405180830381865afa158015620006db573d6000803e3d6000fd5b505050506040513d6000823e601f3d908101601f1916820160405262000705919081019062000b04565b836001600160a01b03166395d89b416040518163ffffffff1660e01b8152600401600060405180830381865afa15801562000744573d6000803e3d6000fd5b505050506040513d6000823e601f3d908101601f191682016040526200076e919081019062000b04565b6040516200077c9062000a0d565b6200078a9392919062000beb565b604051809103906000f080158015620007a7573d6000803e3d6000fd5b506001600160a01b038781166000908152602081905260409081902080546001600160a01b031916928416928317905551635f9bb63d60e11b8152336004820152602481018890529192509063bf376c7a90604401600060405180830381600087803b1580156200081757600080fd5b505af11580156200082c573d6000803e3d6000fd5b505050505050620008b7565b6001600160a01b0384811660009081526020819052604090819020549051635f9bb63d60e11b815233600482015260248101869052911690819063bf376c7a90604401600060405180830381600087803b1580156200089657600080fd5b505af1158015620008ab573d6000803e3d6000fd5b50503360208601525050505b50505050565b6001600160a01b03821660009081526001602090815260408083208484529091528120600201544210620008f35760006200091c565b6001600160a01b0380841660009081526001602081815260408084208785529091529091200154165b9392505050565b6040516323b872dd60e01b81523360048201523060248201526044810184905284906001600160a01b038216906323b872dd90606401600060405180830381600087803b1580156200097457600080fd5b505af115801562000989573d6000803e3d6000fd5b50506040805160808101825233815260006020808301828152838501998a52606084019889526001600160a01b039b8c16835260018083528584209b84529a90915292902090518154908a166001600160a01b0319918216178255915197810180549890991697909116969096179096555050905160028301555160039091015550565b6115888062000c3083390190565b80356001600160a01b038116811462000a3357600080fd5b919050565b6000806040838503121562000a4c57600080fd5b62000a578362000a1b565b946020939093013593505050565b60006020828403121562000a7857600080fd5b6200091c8262000a1b565b6000806000806080858703121562000a9a57600080fd5b62000aa58562000a1b565b966020860135965060408601359560600135945092505050565b634e487b7160e01b600052604160045260246000fd5b60005b8381101562000af257818101518382015260200162000ad8565b83811115620008b75750506000910152565b60006020828403121562000b1757600080fd5b815167ffffffffffffffff8082111562000b3057600080fd5b818401915084601f83011262000b4557600080fd5b81518181111562000b5a5762000b5a62000abf565b604051601f8201601f19908116603f0116810190838211818310171562000b855762000b8562000abf565b8160405282815287602084870101111562000b9f57600080fd5b62000bb283602083016020880162000ad5565b979650505050505050565b6000815180845262000bd781602086016020860162000ad5565b601f01601f19169290920160200192915050565b6001600160a01b038416815260606020820181905260009062000c119083018562000bbd565b828103604084015262000c25818562000bbd565b969550505050505056fe60a06040523480156200001157600080fd5b50604051620015883803806200158883398101604081905262000034916200018a565b8160405160200162000047919062000214565b6040516020818303038152906040528160405160200162000069919062000245565b60408051601f198184030181529190526000620000878382620002ff565b506001620000968282620002ff565b5050506001600160a01b0390921660805250620003cb9050565b634e487b7160e01b600052604160045260246000fd5b60005b83811015620000e3578181015183820152602001620000c9565b83811115620000f3576000848401525b50505050565b600082601f8301126200010b57600080fd5b81516001600160401b0380821115620001285762000128620000b0565b604051601f8301601f19908116603f01168101908282118183101715620001535762000153620000b0565b816040528381528660208588010111156200016d57600080fd5b62000180846020830160208901620000c6565b9695505050505050565b600080600060608486031215620001a057600080fd5b83516001600160a01b0381168114620001b857600080fd5b60208501519093506001600160401b0380821115620001d657600080fd5b620001e487838801620000f9565b93506040860151915080821115620001fb57600080fd5b506200020a86828701620000f9565b9150509250925092565b661ddc985c1c195960ca1b81526000825162000238816007850160208701620000c6565b9190910160070192915050565b607760f81b81526000825162000263816001850160208701620000c6565b9190910160010192915050565b600181811c908216806200028557607f821691505b602082108103620002a657634e487b7160e01b600052602260045260246000fd5b50919050565b601f821115620002fa57600081815260208120601f850160051c81016020861015620002d55750805b601f850160051c820191505b81811015620002f657828155600101620002e1565b5050505b505050565b81516001600160401b038111156200031b576200031b620000b0565b62000333816200032c845462000270565b84620002ac565b602080601f8311600181146200036b5760008415620003525750858301515b600019600386901b1c1916600185901b178555620002f6565b600085815260208120601f198616915b828110156200039c578886015182559484019460019091019084016200037b565b5085821015620003bb5787850151600019600388901b60f8161c191681555b5050505050600190811b01905550565b60805161118c620003fc600039600081816101f70152818161096f01528181610a430152610ada015261118c6000f3fe608060405234801561001057600080fd5b50600436106101005760003560e01c80637de1e53611610097578063bf376c7a11610066578063bf376c7a14610247578063c87b56dd1461025a578063de0e9a3e1461026d578063e985e9c51461028057600080fd5b80637de1e536146101f257806395d89b4114610219578063a22cb46514610221578063b88d4fde1461023457600080fd5b806323b872dd116100d357806323b872dd1461019857806342842e0e146101ab5780636352211e146101be57806370a08231146101d157600080fd5b806301ffc9a71461010557806306fdde031461012d578063081812fc14610142578063095ea7b314610183575b600080fd5b610118610113366004610d81565b6102ae565b60405190151581526020015b60405180910390f35b610135610300565b6040516101249190610dd5565b61016b610150366004610e08565b6004602052600090815260409020546001600160a01b031681565b6040516001600160a01b039091168152602001610124565b610196610191366004610e36565b61038e565b005b6101966101a6366004610e62565b610475565b6101966101b9366004610e62565b61063c565b61016b6101cc366004610e08565b610734565b6101e46101df366004610ea3565b61078b565b604051908152602001610124565b61016b7f000000000000000000000000000000000000000000000000000000000000000081565b6101356107ee565b61019661022f366004610ec0565b6107fb565b610196610242366004610efe565b610867565b610196610255366004610e36565b61094f565b610135610268366004610e08565b610a2a565b61019661027b366004610e08565b610aba565b61011861028e366004610f9d565b600560209081526000928352604080842090915290825290205460ff1681565b60006301ffc9a760e01b6001600160e01b0319831614806102df57506380ac58cd60e01b6001600160e01b03198316145b806102fa5750635b5e139f60e01b6001600160e01b03198316145b92915050565b6000805461030d90610fcb565b80601f016020809104026020016040519081016040528092919081815260200182805461033990610fcb565b80156103865780601f1061035b57610100808354040283529160200191610386565b820191906000526020600020905b81548152906001019060200180831161036957829003601f168201915b505050505081565b6000818152600260205260409020546001600160a01b0316338114806103d757506001600160a01b038116600090815260056020908152604080832033845290915290205460ff165b6104195760405162461bcd60e51b815260206004820152600e60248201526d1393d517d055551213d49256915160921b60448201526064015b60405180910390fd5b60008281526004602052604080822080546001600160a01b0319166001600160a01b0387811691821790925591518593918516917f8c5be1e5ebec7d5bd14f71427d1e84f3dd0314c0f7b2291e5b200ac8c7c3b92591a4505050565b6000818152600260205260409020546001600160a01b038481169116146104cb5760405162461bcd60e51b815260206004820152600a60248201526957524f4e475f46524f4d60b01b6044820152606401610410565b6001600160a01b0382166105155760405162461bcd60e51b81526020600482015260116024820152701253959053125117d49150d25412515395607a1b6044820152606401610410565b336001600160a01b038416148061054f57506001600160a01b038316600090815260056020908152604080832033845290915290205460ff165b8061057057506000818152600460205260409020546001600160a01b031633145b6105ad5760405162461bcd60e51b815260206004820152600e60248201526d1393d517d055551213d49256915160921b6044820152606401610410565b6001600160a01b0380841660008181526003602090815260408083208054600019019055938616808352848320805460010190558583526002825284832080546001600160a01b03199081168317909155600490925284832080549092169091559251849392917fddf252ad1be2c89b69c2b068fc378daa952ba7f163c4a11628f55a4df523b3ef91a4505050565b610647838383610475565b6001600160a01b0382163b15806106f05750604051630a85bd0160e11b8082523360048301526001600160a01b03858116602484015260448301849052608060648401526000608484015290919084169063150b7a029060a4016020604051808303816000875af11580156106c0573d6000803e3d6000fd5b505050506040513d601f19601f820116820180604052508101906106e49190611005565b6001600160e01b031916145b61072f5760405162461bcd60e51b815260206004820152601060248201526f155394d0519157d49150d2541251539560821b6044820152606401610410565b505050565b6000818152600260205260409020546001600160a01b0316806107865760405162461bcd60e51b815260206004820152600a6024820152691393d517d3525395115160b21b6044820152606401610410565b919050565b60006001600160a01b0382166107d25760405162461bcd60e51b815260206004820152600c60248201526b5a45524f5f4144445245535360a01b6044820152606401610410565b506001600160a01b031660009081526003602052604090205490565b6001805461030d90610fcb565b3360008181526005602090815260408083206001600160a01b03871680855290835292819020805460ff191686151590811790915590519081529192917f17307eab39ab6107e8899845ad3d59bd9653f200f220920489ca2b5937696c31910160405180910390a35050565b610872858585610475565b6001600160a01b0384163b15806109095750604051630a85bd0160e11b808252906001600160a01b0386169063150b7a02906108ba9033908a90899089908990600401611022565b6020604051808303816000875af11580156108d9573d6000803e3d6000fd5b505050506040513d601f19601f820116820180604052508101906108fd9190611005565b6001600160e01b031916145b6109485760405162461bcd60e51b815260206004820152601060248201526f155394d0519157d49150d2541251539560821b6044820152606401610410565b5050505050565b6040516331a9108f60e11b81526004810182905233906001600160a01b037f00000000000000000000000000000000000000000000000000000000000000001690636352211e90602401602060405180830381865afa1580156109b6573d6000803e3d6000fd5b505050506040513d601f19601f820116820180604052508101906109da9190611076565b6001600160a01b031614610a1c5760405162461bcd60e51b81526020600482015260096024820152682727aa2fa7aba722a960b91b6044820152606401610410565b610a268282610b93565b5050565b60405163c87b56dd60e01b8152600481018290526060907f00000000000000000000000000000000000000000000000000000000000000006001600160a01b03169063c87b56dd90602401600060405180830381865afa158015610a92573d6000803e3d6000fd5b505050506040513d6000823e601f3d908101601f191682016040526102fa91908101906110a9565b6040516331a9108f60e11b81526004810182905233906001600160a01b037f00000000000000000000000000000000000000000000000000000000000000001690636352211e90602401602060405180830381865afa158015610b21573d6000803e3d6000fd5b505050506040513d601f19601f82011682018060405250810190610b459190611076565b6001600160a01b031614610b875760405162461bcd60e51b81526020600482015260096024820152682727aa2fa7aba722a960b91b6044820152606401610410565b610b9081610c9e565b50565b6001600160a01b038216610bdd5760405162461bcd60e51b81526020600482015260116024820152701253959053125117d49150d25412515395607a1b6044820152606401610410565b6000818152600260205260409020546001600160a01b031615610c335760405162461bcd60e51b815260206004820152600e60248201526d1053149150511657d3525395115160921b6044820152606401610410565b6001600160a01b038216600081815260036020908152604080832080546001019055848352600290915280822080546001600160a01b0319168417905551839291907fddf252ad1be2c89b69c2b068fc378daa952ba7f163c4a11628f55a4df523b3ef908290a45050565b6000818152600260205260409020546001600160a01b031680610cf05760405162461bcd60e51b815260206004820152600a6024820152691393d517d3525395115160b21b6044820152606401610410565b6001600160a01b038116600081815260036020908152604080832080546000190190558583526002825280832080546001600160a01b031990811690915560049092528083208054909216909155518492907fddf252ad1be2c89b69c2b068fc378daa952ba7f163c4a11628f55a4df523b3ef908390a45050565b6001600160e01b031981168114610b9057600080fd5b600060208284031215610d9357600080fd5b8135610d9e81610d6b565b9392505050565b60005b83811015610dc0578181015183820152602001610da8565b83811115610dcf576000848401525b50505050565b6020815260008251806020840152610df4816040850160208701610da5565b601f01601f19169190910160400192915050565b600060208284031215610e1a57600080fd5b5035919050565b6001600160a01b0381168114610b9057600080fd5b60008060408385031215610e4957600080fd5b8235610e5481610e21565b946020939093013593505050565b600080600060608486031215610e7757600080fd5b8335610e8281610e21565b92506020840135610e9281610e21565b929592945050506040919091013590565b600060208284031215610eb557600080fd5b8135610d9e81610e21565b60008060408385031215610ed357600080fd5b8235610ede81610e21565b915060208301358015158114610ef357600080fd5b809150509250929050565b600080600080600060808688031215610f1657600080fd5b8535610f2181610e21565b94506020860135610f3181610e21565b935060408601359250606086013567ffffffffffffffff80821115610f5557600080fd5b818801915088601f830112610f6957600080fd5b813581811115610f7857600080fd5b896020828501011115610f8a57600080fd5b9699959850939650602001949392505050565b60008060408385031215610fb057600080fd5b8235610fbb81610e21565b91506020830135610ef381610e21565b600181811c90821680610fdf57607f821691505b602082108103610fff57634e487b7160e01b600052602260045260246000fd5b50919050565b60006020828403121561101757600080fd5b8151610d9e81610d6b565b6001600160a01b038681168252851660208201526040810184905260806060820181905281018290526000828460a0840137600060a0848401015260a0601f19601f85011683010190509695505050505050565b60006020828403121561108857600080fd5b8151610d9e81610e21565b634e487b7160e01b600052604160045260246000fd5b6000602082840312156110bb57600080fd5b815167ffffffffffffffff808211156110d357600080fd5b818401915084601f8301126110e757600080fd5b8151818111156110f9576110f9611093565b604051601f8201601f19908116603f0116810190838211818310171561112157611121611093565b8160405282815287602084870101111561113a57600080fd5b61114b836020830160208801610da5565b97965050505050505056fea264697066735822122091a41878011c75c9dc5bd2b16f3dabc91b838a97e06d4e41791384d16ceadf2064736f6c634300080f0033a26469706673582212200f9521c666186e7dd8081c75423abd9571c372d276e6ed6ce90eb5dce3f4544c64736f6c634300080f0033",
    "linkReferences": {}
  },
  "methodIdentifiers": {
    "deposit(address,uint256,uint256,uint256)": "ce88b439",
    "endRental(address,uint256)": "1157decb",
    "expiryOf(address,uint256)": "6e5ebd18",
    "feeOf(address,uint256)": "60543590",
    "getWrapped(address)": "6f9c870e",
    "ownerOf(address,uint256)": "1f29d2dc",
    "renteeOf(address,uint256)": "96a91d07",
    "startRental(address,uint256)": "7fdad786",
    "withdrawl(address,uint256)": "5afbed92"
  },
  "id": 16
}