{
  "abi": [
    {
      "inputs": [
        {
          "internalType": "address",
          "name": "_collection",
          "type": "address"
        },
        {
          "internalType": "string",
          "name": "_name",
          "type": "string"
        },
        {
          "internalType": "string",
          "name": "_symbol",
          "type": "string"
        }
      ],
      "stateMutability": "nonpayable",
      "type": "constructor"
    },
    {
      "anonymous": false,
      "inputs": [
        {
          "indexed": true,
          "internalType": "address",
          "name": "owner",
          "type": "address"
        },
        {
          "indexed": true,
          "internalType": "address",
          "name": "spender",
          "type": "address"
        },
        {
          "indexed": true,
          "internalType": "uint256",
          "name": "id",
          "type": "uint256"
        }
      ],
      "name": "Approval",
      "type": "event"
    },
    {
      "anonymous": false,
      "inputs": [
        {
          "indexed": true,
          "internalType": "address",
          "name": "owner",
          "type": "address"
        },
        {
          "indexed": true,
          "internalType": "address",
          "name": "operator",
          "type": "address"
        },
        {
          "indexed": false,
          "internalType": "bool",
          "name": "approved",
          "type": "bool"
        }
      ],
      "name": "ApprovalForAll",
      "type": "event"
    },
    {
      "anonymous": false,
      "inputs": [
        {
          "indexed": true,
          "internalType": "address",
          "name": "from",
          "type": "address"
        },
        {
          "indexed": true,
          "internalType": "address",
          "name": "to",
          "type": "address"
        },
        {
          "indexed": true,
          "internalType": "uint256",
          "name": "id",
          "type": "uint256"
        }
      ],
      "name": "Transfer",
      "type": "event"
    },
    {
      "inputs": [
        {
          "internalType": "address",
          "name": "spender",
          "type": "address"
        },
        {
          "internalType": "uint256",
          "name": "id",
          "type": "uint256"
        }
      ],
      "name": "approve",
      "outputs": [],
      "stateMutability": "nonpayable",
      "type": "function"
    },
    {
      "inputs": [
        {
          "internalType": "address",
          "name": "owner",
          "type": "address"
        }
      ],
      "name": "balanceOf",
      "outputs": [
        {
          "internalType": "uint256",
          "name": "",
          "type": "uint256"
        }
      ],
      "stateMutability": "view",
      "type": "function"
    },
    {
      "inputs": [],
      "name": "collection",
      "outputs": [
        {
          "internalType": "contract ERC721",
          "name": "",
          "type": "address"
        }
      ],
      "stateMutability": "view",
      "type": "function"
    },
    {
      "inputs": [
        {
          "internalType": "uint256",
          "name": "",
          "type": "uint256"
        }
      ],
      "name": "getApproved",
      "outputs": [
        {
          "internalType": "address",
          "name": "",
          "type": "address"
        }
      ],
      "stateMutability": "view",
      "type": "function"
    },
    {
      "inputs": [
        {
          "internalType": "address",
          "name": "",
          "type": "address"
        },
        {
          "internalType": "address",
          "name": "",
          "type": "address"
        }
      ],
      "name": "isApprovedForAll",
      "outputs": [
        {
          "internalType": "bool",
          "name": "",
          "type": "bool"
        }
      ],
      "stateMutability": "view",
      "type": "function"
    },
    {
      "inputs": [],
      "name": "name",
      "outputs": [
        {
          "internalType": "string",
          "name": "",
          "type": "string"
        }
      ],
      "stateMutability": "view",
      "type": "function"
    },
    {
      "inputs": [
        {
          "internalType": "uint256",
          "name": "id",
          "type": "uint256"
        }
      ],
      "name": "ownerOf",
      "outputs": [
        {
          "internalType": "address",
          "name": "owner",
          "type": "address"
        }
      ],
      "stateMutability": "view",
      "type": "function"
    },
    {
      "inputs": [
        {
          "internalType": "address",
          "name": "from",
          "type": "address"
        },
        {
          "internalType": "address",
          "name": "to",
          "type": "address"
        },
        {
          "internalType": "uint256",
          "name": "id",
          "type": "uint256"
        }
      ],
      "name": "safeTransferFrom",
      "outputs": [],
      "stateMutability": "nonpayable",
      "type": "function"
    },
    {
      "inputs": [
        {
          "internalType": "address",
          "name": "from",
          "type": "address"
        },
        {
          "internalType": "address",
          "name": "to",
          "type": "address"
        },
        {
          "internalType": "uint256",
          "name": "id",
          "type": "uint256"
        },
        {
          "internalType": "bytes",
          "name": "data",
          "type": "bytes"
        }
      ],
      "name": "safeTransferFrom",
      "outputs": [],
      "stateMutability": "nonpayable",
      "type": "function"
    },
    {
      "inputs": [
        {
          "internalType": "address",
          "name": "operator",
          "type": "address"
        },
        {
          "internalType": "bool",
          "name": "approved",
          "type": "bool"
        }
      ],
      "name": "setApprovalForAll",
      "outputs": [],
      "stateMutability": "nonpayable",
      "type": "function"
    },
    {
      "inputs": [
        {
          "internalType": "bytes4",
          "name": "interfaceId",
          "type": "bytes4"
        }
      ],
      "name": "supportsInterface",
      "outputs": [
        {
          "internalType": "bool",
          "name": "",
          "type": "bool"
        }
      ],
      "stateMutability": "view",
      "type": "function"
    },
    {
      "inputs": [],
      "name": "symbol",
      "outputs": [
        {
          "internalType": "string",
          "name": "",
          "type": "string"
        }
      ],
      "stateMutability": "view",
      "type": "function"
    },
    {
      "inputs": [
        {
          "internalType": "uint256",
          "name": "id",
          "type": "uint256"
        }
      ],
      "name": "tokenURI",
      "outputs": [
        {
          "internalType": "string",
          "name": "",
          "type": "string"
        }
      ],
      "stateMutability": "view",
      "type": "function"
    },
    {
      "inputs": [
        {
          "internalType": "address",
          "name": "from",
          "type": "address"
        },
        {
          "internalType": "address",
          "name": "to",
          "type": "address"
        },
        {
          "internalType": "uint256",
          "name": "id",
          "type": "uint256"
        }
      ],
      "name": "transferFrom",
      "outputs": [],
      "stateMutability": "nonpayable",
      "type": "function"
    },
    {
      "inputs": [
        {
          "internalType": "uint256",
          "name": "id",
          "type": "uint256"
        }
      ],
      "name": "unwrap",
      "outputs": [],
      "stateMutability": "nonpayable",
      "type": "function"
    },
    {
      "inputs": [
        {
          "internalType": "address",
          "name": "to",
          "type": "address"
        },
        {
          "internalType": "uint256",
          "name": "id",
          "type": "uint256"
        }
      ],
      "name": "wrap",
      "outputs": [],
      "stateMutability": "nonpayable",
      "type": "function"
    }
  ],
  "bytecode": {
    "object": "0x60a06040523480156200001157600080fd5b50604051620015883803806200158883398101604081905262000034916200018a565b8160405160200162000047919062000214565b6040516020818303038152906040528160405160200162000069919062000245565b60408051601f198184030181529190526000620000878382620002ff565b506001620000968282620002ff565b5050506001600160a01b0390921660805250620003cb9050565b634e487b7160e01b600052604160045260246000fd5b60005b83811015620000e3578181015183820152602001620000c9565b83811115620000f3576000848401525b50505050565b600082601f8301126200010b57600080fd5b81516001600160401b0380821115620001285762000128620000b0565b604051601f8301601f19908116603f01168101908282118183101715620001535762000153620000b0565b816040528381528660208588010111156200016d57600080fd5b62000180846020830160208901620000c6565b9695505050505050565b600080600060608486031215620001a057600080fd5b83516001600160a01b0381168114620001b857600080fd5b60208501519093506001600160401b0380821115620001d657600080fd5b620001e487838801620000f9565b93506040860151915080821115620001fb57600080fd5b506200020a86828701620000f9565b9150509250925092565b661ddc985c1c195960ca1b81526000825162000238816007850160208701620000c6565b9190910160070192915050565b607760f81b81526000825162000263816001850160208701620000c6565b9190910160010192915050565b600181811c908216806200028557607f821691505b602082108103620002a657634e487b7160e01b600052602260045260246000fd5b50919050565b601f821115620002fa57600081815260208120601f850160051c81016020861015620002d55750805b601f850160051c820191505b81811015620002f657828155600101620002e1565b5050505b505050565b81516001600160401b038111156200031b576200031b620000b0565b62000333816200032c845462000270565b84620002ac565b602080601f8311600181146200036b5760008415620003525750858301515b600019600386901b1c1916600185901b178555620002f6565b600085815260208120601f198616915b828110156200039c578886015182559484019460019091019084016200037b565b5085821015620003bb5787850151600019600388901b60f8161c191681555b5050505050600190811b01905550565b60805161118c620003fc600039600081816101f70152818161096f01528181610a430152610ada015261118c6000f3fe608060405234801561001057600080fd5b50600436106101005760003560e01c80637de1e53611610097578063bf376c7a11610066578063bf376c7a14610247578063c87b56dd1461025a578063de0e9a3e1461026d578063e985e9c51461028057600080fd5b80637de1e536146101f257806395d89b4114610219578063a22cb46514610221578063b88d4fde1461023457600080fd5b806323b872dd116100d357806323b872dd1461019857806342842e0e146101ab5780636352211e146101be57806370a08231146101d157600080fd5b806301ffc9a71461010557806306fdde031461012d578063081812fc14610142578063095ea7b314610183575b600080fd5b610118610113366004610d81565b6102ae565b60405190151581526020015b60405180910390f35b610135610300565b6040516101249190610dd5565b61016b610150366004610e08565b6004602052600090815260409020546001600160a01b031681565b6040516001600160a01b039091168152602001610124565b610196610191366004610e36565b61038e565b005b6101966101a6366004610e62565b610475565b6101966101b9366004610e62565b61063c565b61016b6101cc366004610e08565b610734565b6101e46101df366004610ea3565b61078b565b604051908152602001610124565b61016b7f000000000000000000000000000000000000000000000000000000000000000081565b6101356107ee565b61019661022f366004610ec0565b6107fb565b610196610242366004610efe565b610867565b610196610255366004610e36565b61094f565b610135610268366004610e08565b610a2a565b61019661027b366004610e08565b610aba565b61011861028e366004610f9d565b600560209081526000928352604080842090915290825290205460ff1681565b60006301ffc9a760e01b6001600160e01b0319831614806102df57506380ac58cd60e01b6001600160e01b03198316145b806102fa5750635b5e139f60e01b6001600160e01b03198316145b92915050565b6000805461030d90610fcb565b80601f016020809104026020016040519081016040528092919081815260200182805461033990610fcb565b80156103865780601f1061035b57610100808354040283529160200191610386565b820191906000526020600020905b81548152906001019060200180831161036957829003601f168201915b505050505081565b6000818152600260205260409020546001600160a01b0316338114806103d757506001600160a01b038116600090815260056020908152604080832033845290915290205460ff165b6104195760405162461bcd60e51b815260206004820152600e60248201526d1393d517d055551213d49256915160921b60448201526064015b60405180910390fd5b60008281526004602052604080822080546001600160a01b0319166001600160a01b0387811691821790925591518593918516917f8c5be1e5ebec7d5bd14f71427d1e84f3dd0314c0f7b2291e5b200ac8c7c3b92591a4505050565b6000818152600260205260409020546001600160a01b038481169116146104cb5760405162461bcd60e51b815260206004820152600a60248201526957524f4e475f46524f4d60b01b6044820152606401610410565b6001600160a01b0382166105155760405162461bcd60e51b81526020600482015260116024820152701253959053125117d49150d25412515395607a1b6044820152606401610410565b336001600160a01b038416148061054f57506001600160a01b038316600090815260056020908152604080832033845290915290205460ff165b8061057057506000818152600460205260409020546001600160a01b031633145b6105ad5760405162461bcd60e51b815260206004820152600e60248201526d1393d517d055551213d49256915160921b6044820152606401610410565b6001600160a01b0380841660008181526003602090815260408083208054600019019055938616808352848320805460010190558583526002825284832080546001600160a01b03199081168317909155600490925284832080549092169091559251849392917fddf252ad1be2c89b69c2b068fc378daa952ba7f163c4a11628f55a4df523b3ef91a4505050565b610647838383610475565b6001600160a01b0382163b15806106f05750604051630a85bd0160e11b8082523360048301526001600160a01b03858116602484015260448301849052608060648401526000608484015290919084169063150b7a029060a4016020604051808303816000875af11580156106c0573d6000803e3d6000fd5b505050506040513d601f19601f820116820180604052508101906106e49190611005565b6001600160e01b031916145b61072f5760405162461bcd60e51b815260206004820152601060248201526f155394d0519157d49150d2541251539560821b6044820152606401610410565b505050565b6000818152600260205260409020546001600160a01b0316806107865760405162461bcd60e51b815260206004820152600a6024820152691393d517d3525395115160b21b6044820152606401610410565b919050565b60006001600160a01b0382166107d25760405162461bcd60e51b815260206004820152600c60248201526b5a45524f5f4144445245535360a01b6044820152606401610410565b506001600160a01b031660009081526003602052604090205490565b6001805461030d90610fcb565b3360008181526005602090815260408083206001600160a01b03871680855290835292819020805460ff191686151590811790915590519081529192917f17307eab39ab6107e8899845ad3d59bd9653f200f220920489ca2b5937696c31910160405180910390a35050565b610872858585610475565b6001600160a01b0384163b15806109095750604051630a85bd0160e11b808252906001600160a01b0386169063150b7a02906108ba9033908a90899089908990600401611022565b6020604051808303816000875af11580156108d9573d6000803e3d6000fd5b505050506040513d601f19601f820116820180604052508101906108fd9190611005565b6001600160e01b031916145b6109485760405162461bcd60e51b815260206004820152601060248201526f155394d0519157d49150d2541251539560821b6044820152606401610410565b5050505050565b6040516331a9108f60e11b81526004810182905233906001600160a01b037f00000000000000000000000000000000000000000000000000000000000000001690636352211e90602401602060405180830381865afa1580156109b6573d6000803e3d6000fd5b505050506040513d601f19601f820116820180604052508101906109da9190611076565b6001600160a01b031614610a1c5760405162461bcd60e51b81526020600482015260096024820152682727aa2fa7aba722a960b91b6044820152606401610410565b610a268282610b93565b5050565b60405163c87b56dd60e01b8152600481018290526060907f00000000000000000000000000000000000000000000000000000000000000006001600160a01b03169063c87b56dd90602401600060405180830381865afa158015610a92573d6000803e3d6000fd5b505050506040513d6000823e601f3d908101601f191682016040526102fa91908101906110a9565b6040516331a9108f60e11b81526004810182905233906001600160a01b037f00000000000000000000000000000000000000000000000000000000000000001690636352211e90602401602060405180830381865afa158015610b21573d6000803e3d6000fd5b505050506040513d601f19601f82011682018060405250810190610b459190611076565b6001600160a01b031614610b875760405162461bcd60e51b81526020600482015260096024820152682727aa2fa7aba722a960b91b6044820152606401610410565b610b9081610c9e565b50565b6001600160a01b038216610bdd5760405162461bcd60e51b81526020600482015260116024820152701253959053125117d49150d25412515395607a1b6044820152606401610410565b6000818152600260205260409020546001600160a01b031615610c335760405162461bcd60e51b815260206004820152600e60248201526d1053149150511657d3525395115160921b6044820152606401610410565b6001600160a01b038216600081815260036020908152604080832080546001019055848352600290915280822080546001600160a01b0319168417905551839291907fddf252ad1be2c89b69c2b068fc378daa952ba7f163c4a11628f55a4df523b3ef908290a45050565b6000818152600260205260409020546001600160a01b031680610cf05760405162461bcd60e51b815260206004820152600a6024820152691393d517d3525395115160b21b6044820152606401610410565b6001600160a01b038116600081815260036020908152604080832080546000190190558583526002825280832080546001600160a01b031990811690915560049092528083208054909216909155518492907fddf252ad1be2c89b69c2b068fc378daa952ba7f163c4a11628f55a4df523b3ef908390a45050565b6001600160e01b031981168114610b9057600080fd5b600060208284031215610d9357600080fd5b8135610d9e81610d6b565b9392505050565b60005b83811015610dc0578181015183820152602001610da8565b83811115610dcf576000848401525b50505050565b6020815260008251806020840152610df4816040850160208701610da5565b601f01601f19169190910160400192915050565b600060208284031215610e1a57600080fd5b5035919050565b6001600160a01b0381168114610b9057600080fd5b60008060408385031215610e4957600080fd5b8235610e5481610e21565b946020939093013593505050565b600080600060608486031215610e7757600080fd5b8335610e8281610e21565b92506020840135610e9281610e21565b929592945050506040919091013590565b600060208284031215610eb557600080fd5b8135610d9e81610e21565b60008060408385031215610ed357600080fd5b8235610ede81610e21565b915060208301358015158114610ef357600080fd5b809150509250929050565b600080600080600060808688031215610f1657600080fd5b8535610f2181610e21565b94506020860135610f3181610e21565b935060408601359250606086013567ffffffffffffffff80821115610f5557600080fd5b818801915088601f830112610f6957600080fd5b813581811115610f7857600080fd5b896020828501011115610f8a57600080fd5b9699959850939650602001949392505050565b60008060408385031215610fb057600080fd5b8235610fbb81610e21565b91506020830135610ef381610e21565b600181811c90821680610fdf57607f821691505b602082108103610fff57634e487b7160e01b600052602260045260246000fd5b50919050565b60006020828403121561101757600080fd5b8151610d9e81610d6b565b6001600160a01b038681168252851660208201526040810184905260806060820181905281018290526000828460a0840137600060a0848401015260a0601f19601f85011683010190509695505050505050565b60006020828403121561108857600080fd5b8151610d9e81610e21565b634e487b7160e01b600052604160045260246000fd5b6000602082840312156110bb57600080fd5b815167ffffffffffffffff808211156110d357600080fd5b818401915084601f8301126110e757600080fd5b8151818111156110f9576110f9611093565b604051601f8201601f19908116603f0116810190838211818310171561112157611121611093565b8160405282815287602084870101111561113a57600080fd5b61114b836020830160208801610da5565b97965050505050505056fea2646970667358221220c6baab735c1a5b51c231c7a6314efce1464d20e3d24d147390b44d3f2eccf76164736f6c634300080f0033",
    "linkReferences": {}
  },
  "methodIdentifiers": {
    "approve(address,uint256)": "095ea7b3",
    "balanceOf(address)": "70a08231",
    "collection()": "7de1e536",
    "getApproved(uint256)": "081812fc",
    "isApprovedForAll(address,address)": "e985e9c5",
    "name()": "06fdde03",
    "ownerOf(uint256)": "6352211e",
    "safeTransferFrom(address,address,uint256)": "42842e0e",
    "safeTransferFrom(address,address,uint256,bytes)": "b88d4fde",
    "setApprovalForAll(address,bool)": "a22cb465",
    "supportsInterface(bytes4)": "01ffc9a7",
    "symbol()": "95d89b41",
    "tokenURI(uint256)": "c87b56dd",
    "transferFrom(address,address,uint256)": "23b872dd",
    "unwrap(uint256)": "de0e9a3e",
    "wrap(address,uint256)": "bf376c7a"
  },
  "id": 17
}