{
  "abi": [
    {
      "inputs": [
        {
          "internalType": "address",
          "name": "_collection",
          "type": "address"
        },
        {
          "internalType": "string",
          "name": "_name",
          "type": "string"
        },
        {
          "internalType": "string",
          "name": "_symbol",
          "type": "string"
        }
      ],
      "stateMutability": "nonpayable",
      "type": "constructor"
    },
    {
      "anonymous": false,
      "inputs": [
        {
          "indexed": true,
          "internalType": "address",
          "name": "owner",
          "type": "address"
        },
        {
          "indexed": true,
          "internalType": "address",
          "name": "spender",
          "type": "address"
        },
        {
          "indexed": true,
          "internalType": "uint256",
          "name": "id",
          "type": "uint256"
        }
      ],
      "name": "Approval",
      "type": "event"
    },
    {
      "anonymous": false,
      "inputs": [
        {
          "indexed": true,
          "internalType": "address",
          "name": "owner",
          "type": "address"
        },
        {
          "indexed": true,
          "internalType": "address",
          "name": "operator",
          "type": "address"
        },
        {
          "indexed": false,
          "internalType": "bool",
          "name": "approved",
          "type": "bool"
        }
      ],
      "name": "ApprovalForAll",
      "type": "event"
    },
    {
      "anonymous": false,
      "inputs": [
        {
          "indexed": true,
          "internalType": "address",
          "name": "from",
          "type": "address"
        },
        {
          "indexed": true,
          "internalType": "address",
          "name": "to",
          "type": "address"
        },
        {
          "indexed": true,
          "internalType": "uint256",
          "name": "id",
          "type": "uint256"
        }
      ],
      "name": "Transfer",
      "type": "event"
    },
    {
      "inputs": [
        {
          "internalType": "address",
          "name": "spender",
          "type": "address"
        },
        {
          "internalType": "uint256",
          "name": "id",
          "type": "uint256"
        }
      ],
      "name": "approve",
      "outputs": [],
      "stateMutability": "nonpayable",
      "type": "function"
    },
    {
      "inputs": [
        {
          "internalType": "address",
          "name": "owner",
          "type": "address"
        }
      ],
      "name": "balanceOf",
      "outputs": [
        {
          "internalType": "uint256",
          "name": "",
          "type": "uint256"
        }
      ],
      "stateMutability": "view",
      "type": "function"
    },
    {
      "inputs": [],
      "name": "collection",
      "outputs": [
        {
          "internalType": "contract ERC721",
          "name": "",
          "type": "address"
        }
      ],
      "stateMutability": "view",
      "type": "function"
    },
    {
      "inputs": [
        {
          "internalType": "uint256",
          "name": "",
          "type": "uint256"
        }
      ],
      "name": "getApproved",
      "outputs": [
        {
          "internalType": "address",
          "name": "",
          "type": "address"
        }
      ],
      "stateMutability": "view",
      "type": "function"
    },
    {
      "inputs": [
        {
          "internalType": "address",
          "name": "",
          "type": "address"
        },
        {
          "internalType": "address",
          "name": "",
          "type": "address"
        }
      ],
      "name": "isApprovedForAll",
      "outputs": [
        {
          "internalType": "bool",
          "name": "",
          "type": "bool"
        }
      ],
      "stateMutability": "view",
      "type": "function"
    },
    {
      "inputs": [],
      "name": "name",
      "outputs": [
        {
          "internalType": "string",
          "name": "",
          "type": "string"
        }
      ],
      "stateMutability": "view",
      "type": "function"
    },
    {
      "inputs": [
        {
          "internalType": "uint256",
          "name": "id",
          "type": "uint256"
        }
      ],
      "name": "ownerOf",
      "outputs": [
        {
          "internalType": "address",
          "name": "owner",
          "type": "address"
        }
      ],
      "stateMutability": "view",
      "type": "function"
    },
    {
      "inputs": [
        {
          "internalType": "address",
          "name": "from",
          "type": "address"
        },
        {
          "internalType": "address",
          "name": "to",
          "type": "address"
        },
        {
          "internalType": "uint256",
          "name": "id",
          "type": "uint256"
        }
      ],
      "name": "safeTransferFrom",
      "outputs": [],
      "stateMutability": "nonpayable",
      "type": "function"
    },
    {
      "inputs": [
        {
          "internalType": "address",
          "name": "from",
          "type": "address"
        },
        {
          "internalType": "address",
          "name": "to",
          "type": "address"
        },
        {
          "internalType": "uint256",
          "name": "id",
          "type": "uint256"
        },
        {
          "internalType": "bytes",
          "name": "data",
          "type": "bytes"
        }
      ],
      "name": "safeTransferFrom",
      "outputs": [],
      "stateMutability": "nonpayable",
      "type": "function"
    },
    {
      "inputs": [
        {
          "internalType": "address",
          "name": "operator",
          "type": "address"
        },
        {
          "internalType": "bool",
          "name": "approved",
          "type": "bool"
        }
      ],
      "name": "setApprovalForAll",
      "outputs": [],
      "stateMutability": "nonpayable",
      "type": "function"
    },
    {
      "inputs": [
        {
          "internalType": "bytes4",
          "name": "interfaceId",
          "type": "bytes4"
        }
      ],
      "name": "supportsInterface",
      "outputs": [
        {
          "internalType": "bool",
          "name": "",
          "type": "bool"
        }
      ],
      "stateMutability": "view",
      "type": "function"
    },
    {
      "inputs": [],
      "name": "symbol",
      "outputs": [
        {
          "internalType": "string",
          "name": "",
          "type": "string"
        }
      ],
      "stateMutability": "view",
      "type": "function"
    },
    {
      "inputs": [
        {
          "internalType": "uint256",
          "name": "id",
          "type": "uint256"
        }
      ],
      "name": "tokenURI",
      "outputs": [
        {
          "internalType": "string",
          "name": "",
          "type": "string"
        }
      ],
      "stateMutability": "view",
      "type": "function"
    },
    {
      "inputs": [
        {
          "internalType": "address",
          "name": "from",
          "type": "address"
        },
        {
          "internalType": "address",
          "name": "to",
          "type": "address"
        },
        {
          "internalType": "uint256",
          "name": "id",
          "type": "uint256"
        }
      ],
      "name": "transferFrom",
      "outputs": [],
      "stateMutability": "nonpayable",
      "type": "function"
    },
    {
      "inputs": [
        {
          "internalType": "uint256",
          "name": "id",
          "type": "uint256"
        }
      ],
      "name": "unwrap",
      "outputs": [],
      "stateMutability": "nonpayable",
      "type": "function"
    },
    {
      "inputs": [
        {
          "internalType": "address",
          "name": "to",
          "type": "address"
        },
        {
          "internalType": "uint256",
          "name": "id",
          "type": "uint256"
        }
      ],
      "name": "wrap",
      "outputs": [],
      "stateMutability": "nonpayable",
      "type": "function"
    }
  ],
  "bytecode": {
    "object": "0x60a06040523480156200001157600080fd5b50604051620015283803806200152883398101604081905262000034916200019b565b8160405160200162000047919062000225565b6040516020818303038152906040528160405160200162000069919062000256565b60408051601f19818403018152919052600062000087838262000310565b50600162000096828262000310565b5050506001600160a01b039092166080525050600680546001600160a01b03191633179055620003dc565b634e487b7160e01b600052604160045260246000fd5b60005b83811015620000f4578181015183820152602001620000da565b8381111562000104576000848401525b50505050565b600082601f8301126200011c57600080fd5b81516001600160401b0380821115620001395762000139620000c1565b604051601f8301601f19908116603f01168101908282118183101715620001645762000164620000c1565b816040528381528660208588010111156200017e57600080fd5b62000191846020830160208901620000d7565b9695505050505050565b600080600060608486031215620001b157600080fd5b83516001600160a01b0381168114620001c957600080fd5b60208501519093506001600160401b0380821115620001e757600080fd5b620001f5878388016200010a565b935060408601519150808211156200020c57600080fd5b506200021b868287016200010a565b9150509250925092565b661ddc985c1c195960ca1b81526000825162000249816007850160208701620000d7565b9190910160070192915050565b607760f81b81526000825162000274816001850160208701620000d7565b9190910160010192915050565b600181811c908216806200029657607f821691505b602082108103620002b757634e487b7160e01b600052602260045260246000fd5b50919050565b601f8211156200030b57600081815260208120601f850160051c81016020861015620002e65750805b601f850160051c820191505b818110156200030757828155600101620002f2565b5050505b505050565b81516001600160401b038111156200032c576200032c620000c1565b62000344816200033d845462000281565b84620002bd565b602080601f8311600181146200037c5760008415620003635750858301515b600019600386901b1c1916600185901b17855562000307565b600085815260208120601f198616915b82811015620003ad578886015182559484019460019091019084016200038c565b5085821015620003cc5787850151600019600388901b60f8161c191681555b5050505050600190811b01905550565b60805161111b6200040d600039600081816101f701528181610971015281816109fc0152610ae4015261111b6000f3fe608060405234801561001057600080fd5b50600436106101005760003560e01c80637de1e53611610097578063bf376c7a11610066578063bf376c7a14610247578063c87b56dd1461025a578063de0e9a3e1461026d578063e985e9c51461028057600080fd5b80637de1e536146101f257806395d89b4114610219578063a22cb46514610221578063b88d4fde1461023457600080fd5b806323b872dd116100d357806323b872dd1461019857806342842e0e146101ab5780636352211e146101be57806370a08231146101d157600080fd5b806301ffc9a71461010557806306fdde031461012d578063081812fc14610142578063095ea7b314610183575b600080fd5b610118610113366004610d35565b6102ae565b60405190151581526020015b60405180910390f35b610135610300565b6040516101249190610d89565b61016b610150366004610dbc565b6004602052600090815260409020546001600160a01b031681565b6040516001600160a01b039091168152602001610124565b610196610191366004610dec565b61038e565b005b6101966101a6366004610e16565b610475565b6101966101b9366004610e16565b61063c565b61016b6101cc366004610dbc565b610734565b6101e46101df366004610e52565b61078b565b604051908152602001610124565b61016b7f000000000000000000000000000000000000000000000000000000000000000081565b6101356107ee565b61019661022f366004610e6d565b6107fb565b610196610242366004610ea9565b610867565b610196610255366004610dec565b61094f565b610135610268366004610dbc565b6109e3565b61019661027b366004610dbc565b610a73565b61011861028e366004610f44565b600560209081526000928352604080842090915290825290205460ff1681565b60006301ffc9a760e01b6001600160e01b0319831614806102df57506380ac58cd60e01b6001600160e01b03198316145b806102fa5750635b5e139f60e01b6001600160e01b03198316145b92915050565b6000805461030d90610f77565b80601f016020809104026020016040519081016040528092919081815260200182805461033990610f77565b80156103865780601f1061035b57610100808354040283529160200191610386565b820191906000526020600020905b81548152906001019060200180831161036957829003601f168201915b505050505081565b6000818152600260205260409020546001600160a01b0316338114806103d757506001600160a01b038116600090815260056020908152604080832033845290915290205460ff165b6104195760405162461bcd60e51b815260206004820152600e60248201526d1393d517d055551213d49256915160921b60448201526064015b60405180910390fd5b60008281526004602052604080822080546001600160a01b0319166001600160a01b0387811691821790925591518593918516917f8c5be1e5ebec7d5bd14f71427d1e84f3dd0314c0f7b2291e5b200ac8c7c3b92591a4505050565b6000818152600260205260409020546001600160a01b038481169116146104cb5760405162461bcd60e51b815260206004820152600a60248201526957524f4e475f46524f4d60b01b6044820152606401610410565b6001600160a01b0382166105155760405162461bcd60e51b81526020600482015260116024820152701253959053125117d49150d25412515395607a1b6044820152606401610410565b336001600160a01b038416148061054f57506001600160a01b038316600090815260056020908152604080832033845290915290205460ff165b8061057057506000818152600460205260409020546001600160a01b031633145b6105ad5760405162461bcd60e51b815260206004820152600e60248201526d1393d517d055551213d49256915160921b6044820152606401610410565b6001600160a01b0380841660008181526003602090815260408083208054600019019055938616808352848320805460010190558583526002825284832080546001600160a01b03199081168317909155600490925284832080549092169091559251849392917fddf252ad1be2c89b69c2b068fc378daa952ba7f163c4a11628f55a4df523b3ef91a4505050565b610647838383610475565b6001600160a01b0382163b15806106f05750604051630a85bd0160e11b8082523360048301526001600160a01b03858116602484015260448301849052608060648401526000608484015290919084169063150b7a029060a4016020604051808303816000875af11580156106c0573d6000803e3d6000fd5b505050506040513d601f19601f820116820180604052508101906106e49190610fb1565b6001600160e01b031916145b61072f5760405162461bcd60e51b815260206004820152601060248201526f155394d0519157d49150d2541251539560821b6044820152606401610410565b505050565b6000818152600260205260409020546001600160a01b0316806107865760405162461bcd60e51b815260206004820152600a6024820152691393d517d3525395115160b21b6044820152606401610410565b919050565b60006001600160a01b0382166107d25760405162461bcd60e51b815260206004820152600c60248201526b5a45524f5f4144445245535360a01b6044820152606401610410565b506001600160a01b031660009081526003602052604090205490565b6001805461030d90610f77565b3360008181526005602090815260408083206001600160a01b03871680855290835292819020805460ff191686151590811790915590519081529192917f17307eab39ab6107e8899845ad3d59bd9653f200f220920489ca2b5937696c31910160405180910390a35050565b610872858585610475565b6001600160a01b0384163b15806109095750604051630a85bd0160e11b808252906001600160a01b0386169063150b7a02906108ba9033908a90899089908990600401610fce565b6020604051808303816000875af11580156108d9573d6000803e3d6000fd5b505050506040513d601f19601f820116820180604052508101906108fd9190610fb1565b6001600160e01b031916145b6109485760405162461bcd60e51b815260206004820152601060248201526f155394d0519157d49150d2541251539560821b6044820152606401610410565b5050505050565b6040516323b872dd60e01b8152336004820152306024820152604481018290527f00000000000000000000000000000000000000000000000000000000000000006001600160a01b0316906323b872dd90606401600060405180830381600087803b1580156109bd57600080fd5b505af11580156109d1573d6000803e3d6000fd5b505050506109df8282610b44565b5050565b60405163c87b56dd60e01b8152600481018290526060907f00000000000000000000000000000000000000000000000000000000000000006001600160a01b03169063c87b56dd90602401600060405180830381865afa158015610a4b573d6000803e3d6000fd5b505050506040513d6000823e601f3d908101601f191682016040526102fa9190810190611038565b6006546001600160a01b03163314610ab95760405162461bcd60e51b81526020600482015260096024820152682727aa2fa7aba722a960b91b6044820152606401610410565b610ac281610c4f565b6040516323b872dd60e01b8152306004820152336024820152604481018290527f00000000000000000000000000000000000000000000000000000000000000006001600160a01b0316906323b872dd90606401600060405180830381600087803b158015610b3057600080fd5b505af1158015610948573d6000803e3d6000fd5b6001600160a01b038216610b8e5760405162461bcd60e51b81526020600482015260116024820152701253959053125117d49150d25412515395607a1b6044820152606401610410565b6000818152600260205260409020546001600160a01b031615610be45760405162461bcd60e51b815260206004820152600e60248201526d1053149150511657d3525395115160921b6044820152606401610410565b6001600160a01b038216600081815260036020908152604080832080546001019055848352600290915280822080546001600160a01b0319168417905551839291907fddf252ad1be2c89b69c2b068fc378daa952ba7f163c4a11628f55a4df523b3ef908290a45050565b6000818152600260205260409020546001600160a01b031680610ca15760405162461bcd60e51b815260206004820152600a6024820152691393d517d3525395115160b21b6044820152606401610410565b6001600160a01b038116600081815260036020908152604080832080546000190190558583526002825280832080546001600160a01b031990811690915560049092528083208054909216909155518492907fddf252ad1be2c89b69c2b068fc378daa952ba7f163c4a11628f55a4df523b3ef908390a45050565b6001600160e01b031981168114610d3257600080fd5b50565b600060208284031215610d4757600080fd5b8135610d5281610d1c565b9392505050565b60005b83811015610d74578181015183820152602001610d5c565b83811115610d83576000848401525b50505050565b6020815260008251806020840152610da8816040850160208701610d59565b601f01601f19169190910160400192915050565b600060208284031215610dce57600080fd5b5035919050565b80356001600160a01b038116811461078657600080fd5b60008060408385031215610dff57600080fd5b610e0883610dd5565b946020939093013593505050565b600080600060608486031215610e2b57600080fd5b610e3484610dd5565b9250610e4260208501610dd5565b9150604084013590509250925092565b600060208284031215610e6457600080fd5b610d5282610dd5565b60008060408385031215610e8057600080fd5b610e8983610dd5565b915060208301358015158114610e9e57600080fd5b809150509250929050565b600080600080600060808688031215610ec157600080fd5b610eca86610dd5565b9450610ed860208701610dd5565b935060408601359250606086013567ffffffffffffffff80821115610efc57600080fd5b818801915088601f830112610f1057600080fd5b813581811115610f1f57600080fd5b896020828501011115610f3157600080fd5b9699959850939650602001949392505050565b60008060408385031215610f5757600080fd5b610f6083610dd5565b9150610f6e60208401610dd5565b90509250929050565b600181811c90821680610f8b57607f821691505b602082108103610fab57634e487b7160e01b600052602260045260246000fd5b50919050565b600060208284031215610fc357600080fd5b8151610d5281610d1c565b6001600160a01b038681168252851660208201526040810184905260806060820181905281018290526000828460a0840137600060a0848401015260a0601f19601f85011683010190509695505050505050565b634e487b7160e01b600052604160045260246000fd5b60006020828403121561104a57600080fd5b815167ffffffffffffffff8082111561106257600080fd5b818401915084601f83011261107657600080fd5b81518181111561108857611088611022565b604051601f8201601f19908116603f011681019083821181831017156110b0576110b0611022565b816040528281528760208487010111156110c957600080fd5b6110da836020830160208801610d59565b97965050505050505056fea2646970667358221220f805d22e29c51197eba4dad5119ac2c60ae719638365a032703f03b4286222af64736f6c634300080f0033",
    "linkReferences": {}
  },
  "methodIdentifiers": {
    "approve(address,uint256)": "095ea7b3",
    "balanceOf(address)": "70a08231",
    "collection()": "7de1e536",
    "getApproved(uint256)": "081812fc",
    "isApprovedForAll(address,address)": "e985e9c5",
    "name()": "06fdde03",
    "ownerOf(uint256)": "6352211e",
    "safeTransferFrom(address,address,uint256)": "42842e0e",
    "safeTransferFrom(address,address,uint256,bytes)": "b88d4fde",
    "setApprovalForAll(address,bool)": "a22cb465",
    "supportsInterface(bytes4)": "01ffc9a7",
    "symbol()": "95d89b41",
    "tokenURI(uint256)": "c87b56dd",
    "transferFrom(address,address,uint256)": "23b872dd",
    "unwrap(uint256)": "de0e9a3e",
    "wrap(address,uint256)": "bf376c7a"
  },
  "id": 17
}